:100000008EEF01F01438700B006ED89000361F0E82
:100010006F1400106F6E6ECF00F0003A0030070BC7
:10002000145CF9E11200C00E70140409706E3F0EEA
:100030007014706EF80E7114716EC70E7114280969
:10004000716E719C718EF80E72140109726E729C41
:10005000C6EF00F023C02AF022C029F0285252E057
:1000600029C0E9FF2AC0EAFF24C0EFFF2950D8B415
:100070002A06290629C0E9FF2AC0EAFF25C0EFFFAA
:100080002950D8B42A06290629C0E9FF2AC0EAFF68
:100090002650030BEF6E29C0E9FF2AC0EAFF26C0F5
:1000A00000F0003600360036F80E00160050E00B67
:1000B000EF10EF6E29C0E9FF2AC0EAFFEF500809F0
:1000C000EF6E2950D8B42A06290629C0E9FF2AC0B4
:1000D000EAFF26C000F0003A0032070E001600507A
:1000E000070BEF6E29C0E9FF2AC0EAFF27C000F026
:1000F000003600360036F80E00160050F80BEF10F0
:10010000EF6E3FD029C0E9FF2AC0EAFFEF6A29500D
:10011000D8B42A06290629C0E9FF2AC0EAFFEF6AF7
:100120002950D8B42A06290629C0E9FF2AC0EAFFC7
:1001300024C000F0003A0036E00E00160050E00B3C
:10014000EF6E2950D8B42A06290629C0E9FF2AC033
:10015000EAFF24C000F00032003200321F0E001609
:1001600000501F0BEF6E29C0E9FF2AC0EAFF25C02F
:1001700000F0003A0036E00E00160050E00BEF10E1
:10018000EF6E1200040E146E3DDF4DD7606A9F0EB5
:100190006014606E608460CF50FF738A7398739EA2
:1001A000739C0F0E236E1B0E226E276A266A256A29
:1001B000246A010E286E4EDF0F0E236E030E226E90
:1001C000276A266A256A246A010E286E43DF0F0E0D
:1001D000236E070E226E276A266A256A246A010E9C
:1001E000286E38DF0F0E236E1F0E226E276A266AD6
:1001F000256A246A010E286E2DDF0F0E236E0B0E6A
:10020000226E276A266A256A246A010E286E22DF7A
:100210000F0E236E226E276A266A256A246A010E53
:10022000286E18DF0F0E236E130E226E276A266AC1
:10023000256A246A010E286E0DDF0F0E236E170E3D
:10024000226E276A266A256A246A010E286E02DF5A
:10025000800E946E146AD6DEA3EF01F00F0E206EAE
:10026000660E1F6E0F0140B706D0F10E6F1408091D
:100270006F6E216A15D030B707D0F10E6F140609E2
:100280006F6E010E216E0CD020B707D0F10E6F14E7
:1002900004096F6E020E216E03D0000E016E3BD07A
:1002A0001B50030B006EFC0E60140010606E0F0EEE
:1002B000236E640E226E17C027F016C026F015C0FC
:1002C00025F014C024F01CC028F00001C3DE1AC0C1
:1002D00065FF659C1DB0658C1E6A1A501E5C14E299
:1002E00018C0E9FF19C0EAFFEFCF24F020C0EAFFF1
:1002F0001FC0E9FF24C0EFFF1F2AD8B4202A182A04
:10030000D8B4192A1E2AE9D76086F10E6F146F6ED1
:10031000010E016E0F010001B6EF01F0F86AD09EE8
:10032000EA6AE96A540ED36E9B6A646A0F015C51F3
:10033000800B5C6F000E5D6FC196C198C19A5E6BB9
:100340005F6B00011FD7126A550E096E176A166A95
:10035000156A2A0E146E196A090E186E010E1A6EAD
:10036000030E1B6E010E1C6E1D6A78D7FFD70300AB
:020000040030CA
:0E0000001DC87E7C008991000FC00FE00F40EC
:00000001FF
;PIC18F25K80
;CRC=50B0  CREATED="13-Apr-11 23:14"
