:020000040000FA
:0600000097EF01F0120071
:0A0006000100620300006A00000020
:0400100002000000EA
:0C0014000DEF00F01200DACFE4FFE2CFA5
:10002000DAFFE9CFE4FFEACFE4FFF6CFE4FFF7CF52
:10003000E4FFF5CFE4FFF3CFE4FFF4CFE4FFFACF22
:10004000E4FF00EE00F0020EE80403E3EECFE4FF6D
:10005000FBD700EE02F0000EE80403E3EECFE4FF6E
:10006000FBD7E652F294060EE66EE66A4FEC01F01C
:10007000E552E55200016A2B000E6B23E55200EEBB
:1000800001F0000EE80403E3E5CFEDFFFBD700EE3F
:1000900001F0020EE80403E3E5CFEDFFFBD7E5CF67
:1000A000FAFFE5CFF4FFE5CFF3FFE5CFF5FFE5CFAE
:1000B000F7FFE5CFF6FFE5CFEAFFE5CFE9FFE5CFB4
:1000C000DAFF1100D9CFE6FFE1CFD9FFFE0EDB50FA
:1000D000010BE8B08084E8A080948090FD0EDB5096
:1000E0008B6E010EE66EA5EC01F0E5528082010EEA
:1000F000E66EA5EC01F0E5528092010EE66EA5ECED
:1001000001F0E552E552E7CFD9FF12008F0ED3146C
:100110007009D36E8B6A809080928094899C946AD7
:10012000929092929294929C00016A6B6B6B0F0E6C
:100130006A5D000E6B5901E2FAD7300EE66EE66A90
:10014000C1DFE552E55200016A6B6B6B050E6A5D1B
:10015000000E6B5901E2FAD7300EE66EE66AB2DFA6
:10016000E552E55200016A6B6B6B020E6A5D000E90
:100170006B5901E2FAD7300EE66EE66AA3DFE5526C
:10018000E55200016A6B6B6B020E6A5D000E6B59E3
:1001900001E2FAD7380EE66EE66A94DFE552E552E0
:1001A000080EE66EE66A8EDFE552E552010EE66E57
:1001B000E66A88DFE552E552060EE66EE66A82DF01
:1001C000E552E5523C0EE66E010EE66E7BDFE5522F
:1001D000E5521200D30EE66E6BEC01F0E552060E0E
:1001E000E66EE66A4FEC01F0E552E552D08ED09C07
:1001F000800EF26EF184F28A89DF898CFFD71200BB
:10020000060EF66E000EF76E000EF86E0001090085
:10021000F550656F0900F550666F03E1656701D021
:100220003DD00900F550606F0900F550616F09007D
:10023000F550626F09000900F550E96E0900F550AC
:10024000EA6E090009000900F550636F0900F550D6
:10025000646F09000900F6CF67F0F7CF68F0F8CFB8
:1002600069F060C0F6FF61C0F7FF62C0F8FF0001EF
:10027000635302E1645307E00900F550EE6E630733
:10028000F8E26407F9D767C0F6FF68C0F7FF69C0F6
:0E029000F8FF00016507000E665BBFD7120085
:02029E00D9CFB6
:1002A000E6FFDACFE6FFE1CFD9FFE2CFDAFFE65291
:1002B000E652FC0EDBCFDEFFDBCFDDFF010EDB50B5
:1002C000D76EDF50D66EE552E552E552E5CFDAFF44
:0602D000E7CFD9FF120088
:0A02D600D9CFE6FFDACFE6FFE1CF53
:1002E000D9FFE2CFDAFFFD0EDB507F0BD56ED76A68
:1002F000D66AF294FD0EDBAE02D0F28A01D0F29AF9
:0E030000D58EE552E5CFDAFFE7CFD9FF120028
:02030E00000EDF
:10031000F36E00EE00F00E0E01D81200EA6002D07B
:0E032000EE6AFCD7F350E9601200EE6AFCD7DB
:02032E001DEEC2
:1003300000F02DEE00F0F86A019C00EC01F0B0EC4A
:0A03400001F0EAEC00F0FBD7120018
:06034A00FF0EE350E84E37
:100350001200000000D000D000D0E82EFAD7120022
:02036000120089
:02036200000099
:020000040030CA
:010000001DE2
:0100010008F6
:010003007C80
:00000001FF
