:020000040000FA
:06000000B2EF00F0120057
:020006000000F8
:08000800060EF66E000EF76E05
:10001000000EF86E00010900F550656F0900F550FB
:10002000666F03E1656701D03DD00900F550606F50
:100030000900F550616F0900F550626F0900090071
:10004000F550E96E0900F550EA6E09000900090053
:10005000F550636F0900F550646F09000900F6CF91
:1000600067F0F7CF68F0F8CF69F060C0F6FF61C0C5
:10007000F7FF62C0F8FF0001635302E1645307E039
:100080000900F550EE6E6307F8E26407F9D767C020
:10009000F6FF68C0F7FF69C0F8FF00016507000EB2
:0600A000665BBFD71200F1
:0A00A6008F0ED3147009D36E899CED
:1000B000929C12008B6A948E1F0E6F1480096F6ED3
:1000C0006F50E00BE842E842E842E842E8420408A8
:1000D00001E0F6D73F0E72148009726E728AE00E4C
:1000E00072141209726E0E01C30E436F9E0E446F9E
:1000F000030E456F606A608C0F01306B308D709A13
:10010000708870801F0E6F1400096F6E6F50E00BC7
:10011000E842E842E842E842E842000901E0F6D756
:100120001200C1DFC7DF0F0120971A0E216F228B4B
:10013000228D229F25912593259525972087898CAF
:04014000FFD71200D3
:0C014400000EF36E00EE00F00E0E01D86D
:100150001200EA6002D0EE6AFCD7F350E9601200A8
:04016000EE6AFCD770
:0C0164001DEE00F02DEE00F0F86A019C8A
:1001700004EC00F0C0EC00F091EC00F0FBD71200B2
:0201800012006B
:020000040030CA
:010000001DE2
:0100010008F6
:010003007C80
:010005008872
:00000001FF
