:020000001028C6
:10000800FE000308F0000408F1000A08F200831259
:1000180003137F08F30028284428073083120313AA
:100028009F00C030831603138100C0308B00183046
:100038008C008312031385018601FE308316031397
:100048008500FB30860008008C1E2B282C282F28C2
:100058001A0899002F2830287308FF0072088A00B0
:100068007108840070088300FE0E7E0E09001120BE
:1000780083160313850183120313051442281028DD
:0A0088004820F40083013B28613496
:02400E00023F6F
:00000001FF
