:020000040000FA
:0600000024EF02F01200E3
:0A00060001007C0400006A00000005
:0400100004000000E8
:0C001400D9CFE6FFE1CFD9FFE652DF6A4A
:10002000FE0EDB50DF5C0DE2010EE66E32EC02F0FC
:10003000E552000000000000000000000000DF2A80
:10004000EFD7E552E552E7CFD9FF1200D9CFE6FF4F
:10005000E1CFD9FFE652DF6AFE0EDB50DF5C07E23C
:10006000100EE66E04EC02F0E552DF2AF5D7E552F9
:10007000E552E7CFD9FF1200D9CFE6FFE1CFD9FF94
:10008000E652DF6ADFCF00F0016A00BE0168FE0EB3
:10009000DB50026E036AE80E0302F3CF03F0030E97
:1000A0000202F3500326E80E0202F3CF02F0F450EE
:1000B000032601500318E8AE02D0033404D00250E6
:1000C000005C0350015806E2010EE66EBFDFE55208
:1000D000DF2AD8D7E552E552E7CFD9FF1200D9CFB2
:1000E000E6FFE1CFD9FFFE0EDB500F0B806E000064
:1000F0008280020EE66E8EDFE5528290E552E7CFF7
:10010000D9FF1200D9CFE6FFE1CFD9FFE652DF6A6F
:10011000828000008050010BDF128050020B01E052
:10012000010EE824DF128050040B01E0010E040DE3
:10013000F350DF128050080B01E0010E080DF35060
:10014000DF128290DF5000D0E552E552E7CFD9FFB1
:100150001200D9CFE6FFE1CFD9FF020EE12682825D
:100160000000D0DFE76E010EE7CFDBFFCBDFDF6EF5
:10017000010EDB38F00BDF1000D0006E020EE15CE8
:1001800002E2E16AE552E16E0050E552E7CFD9FFA5
:100190001200D9CFE6FFE1CFD9FF82943C0EE66E84
:1001A00039DFE552FE0EDB5002E0828401D08294FA
:1001B0000000829200008290FD0EDB380F0BE66E8D
:1001C0008EDFE552FD0EDB500F0BE66E88DFE55249
:1001D000E552E7CFD9FF1200D9CFE6FFE1CFD9FF33
:1001E000E6528294829282901E0EE66E2FDFE552D6
:1001F000DF6ADFCF00F0030EE76E0018E8AE02D032
:10020000E73402D0E750005C0AE2030EE66E67DFD7
:10021000E5520A0EE66E1ADFE552DF2AEAD7020E31
:10022000E66E5DDFE552DF6ADFCF00F0016A00BEF7
:100230000168040E005C000E015815E2DFCFE9FFF3
:10024000EA6AE9BEEA686A0EE926000EEA22EF5081
:10025000E66EE66A9EDFE552E5520A0EE66EF6DECF
:10026000E552DF2AE1D7E552E552E7CFD9FF120088
:10027000D9CFE6FFE1CFD9FFE652FD0EDB0403E064
:10028000400EDF6E01D0DF6AFE0EDB04DF26800E3B
:10029000DF10E66EE66A7DDFE552E552E552E55293
:1002A000E7CFD9FF1200D9CFE6FFE1CFD9FFFE0E8D
:1002B000DB50080A20E0020A16E0060A09E0FE0EFA
:1002C000DBCFE6FF010EE66E64DFE552E5521AD0A1
:1002D000010EE66EE66A5DDFE552E552020EE66E5D
:1002E000B5DEE5520FD0020EE66E010EE66EC0DFFF
:1002F000E552E55207D0100EE66EE66A4ADFE55297
:10030000E55200D0E552E7CFD9FF1200D9CFE6FF82
:10031000E1CFD9FFE652FD0EDBCFE6FFFE0EDBCFCD
:10032000E6FFA6DFE552E55214DF800B01E0FCD7C3
:1003300082840FDFDF6E8294DF5000D0E552E552F9
:06034000E7CFD9FF120017
:0A034600060EF66E000EF76E000EB4
:10035000F86E00010900F550656F0900F550666FF1
:1003600003E1656701D03DD00900F550606F0900D9
:10037000F550616F0900F550626F09000900F550F2
:10038000E96E0900F550EA6E090009000900F55010
:10039000636F0900F550646F09000900F6CF67F03C
:1003A000F7CF68F0F8CF69F060C0F6FF61C0F7FFE3
:1003B00062C0F8FF0001635302E1645307E00900E3
:1003C000F550EE6E6307F8E26407F9D767C0F6FFF1
:1003D00068C0F7FF69C0F8FF00016507000E665BA3
:0403E000BFD7120071
:0C03E4000F015C6B926A806A946A826A66
:1003F0001200F8DFECEC00F0808C740EE66E53EC2B
:0804000001F0E552FAD71200E9
:08040800FF0EE350066E480EE2
:1004100001D04C0EE76EE72EFED7E76AE72EFED737
:08042000062EF7D700001200C0
:08042800000EF36E00EE00F07F
:100430000E0E01D81200EA6002D0EE6AFCD7F3502B
:08044000E9601200EE6AFCD72E
:080448001DEE00F02DEE00F0A6
:10045000F86A059CA3EC01F03DEC02F0F9EC01F028
:04046000FBD71200B4
:0C046400FF0EE350E84E1200000000D034
:0A04700000D000D0E82EFAD71200E9
:02047A0012006E
:04047C002808010645
:020000040030CA
:010000001DE2
:010003007C80
:00000001FF
