:040000007BEF00F0A2
:08000800046ED8CF05F0E0CF33
:1000100006F00001E9CF0CF0EACF07F0E1CF08F0DD
:10002000E2CF09F0D9CF0AF0DACF0BF0F3CF12F01C
:10003000F4CF13F0FACF14F0F5CF15F0F6CF16F099
:10004000F7CF17F000C00EF001C00FF002C010F0A3
:1000500003C011F0F2AA30EF00F0F2B457EF00F055
:100060000EC000F00FC001F010C002F011C003F08C
:100070000CC0E9FF07C0EAFF078E08C0E1FF09C016
:10008000E2FF0AC0D9FF0BC0DAFF12C0F3FF13C0B2
:10009000F4FF14C0FAFF15C0F5FF16C0F6FF17C035
:1000A000F7FF045006C0E0FF05C0D8FF1000929E85
:1000B000897EF29430EF00F0700ED36E9B6A646A12
:1000C0000F015C51800B5C6F000E5D6FC196C19893
:1000D000C19AC290040E5E6F5F6FD76AD66AC10E76
:1000E000D56EF28AC00EF212000E926E936E946E6E
:1000F000000191EF00F0F86AD09E078EEA6AE96A83
:10010000740ED36E9B6A646A0F015C51800B5C6F46
:10011000000E5D6FC196C198C19A5E6B5F6B000166
:0C012000CBD7929C898CF28AFED703009A
:020000040030CA
:0E0000001DC87E7C008991000FC00FE00F40EC
:00000001FF
;PIC18F25K80
;CRC=3F68  CREATED="01-May-11 20:37"
